{
  "_format": "hh-sol-artifact-1",
  "contractName": "CertificateNFT",
  "sourceName": "contracts/CertificateNFT.sol",
  "abi": [
    {
      "inputs": [],
      "stateMutability": "nonpayable",
      "type": "constructor"
    },
    {
      "inputs": [
        {
          "internalType": "address",
          "name": "sender",
          "type": "address"
        },
        {
          "internalType": "uint256",
          "name": "tokenId",
          "type": "uint256"
        },
        {
          "internalType": "address",
          "name": "owner",
          "type": "address"
        }
      ],
      "name": "ERC721IncorrectOwner",
      "type": "error"
    },
    {
      "inputs": [
        {
          "internalType": "address",
          "name": "operator",
          "type": "address"
        },
        {
          "internalType": "uint256",
          "name": "tokenId",
          "type": "uint256"
        }
      ],
      "name": "ERC721InsufficientApproval",
      "type": "error"
    },
    {
      "inputs": [
        {
          "internalType": "address",
          "name": "approver",
          "type": "address"
        }
      ],
      "name": "ERC721InvalidApprover",
      "type": "error"
    },
    {
      "inputs": [
        {
          "internalType": "address",
          "name": "operator",
          "type": "address"
        }
      ],
      "name": "ERC721InvalidOperator",
      "type": "error"
    },
    {
      "inputs": [
        {
          "internalType": "address",
          "name": "owner",
          "type": "address"
        }
      ],
      "name": "ERC721InvalidOwner",
      "type": "error"
    },
    {
      "inputs": [
        {
          "internalType": "address",
          "name": "receiver",
          "type": "address"
        }
      ],
      "name": "ERC721InvalidReceiver",
      "type": "error"
    },
    {
      "inputs": [
        {
          "internalType": "address",
          "name": "sender",
          "type": "address"
        }
      ],
      "name": "ERC721InvalidSender",
      "type": "error"
    },
    {
      "inputs": [
        {
          "internalType": "uint256",
          "name": "tokenId",
          "type": "uint256"
        }
      ],
      "name": "ERC721NonexistentToken",
      "type": "error"
    },
    {
      "inputs": [
        {
          "internalType": "address",
          "name": "owner",
          "type": "address"
        }
      ],
      "name": "OwnableInvalidOwner",
      "type": "error"
    },
    {
      "inputs": [
        {
          "internalType": "address",
          "name": "account",
          "type": "address"
        }
      ],
      "name": "OwnableUnauthorizedAccount",
      "type": "error"
    },
    {
      "anonymous": false,
      "inputs": [
        {
          "indexed": true,
          "internalType": "address",
          "name": "owner",
          "type": "address"
        },
        {
          "indexed": true,
          "internalType": "address",
          "name": "approved",
          "type": "address"
        },
        {
          "indexed": true,
          "internalType": "uint256",
          "name": "tokenId",
          "type": "uint256"
        }
      ],
      "name": "Approval",
      "type": "event"
    },
    {
      "anonymous": false,
      "inputs": [
        {
          "indexed": true,
          "internalType": "address",
          "name": "owner",
          "type": "address"
        },
        {
          "indexed": true,
          "internalType": "address",
          "name": "operator",
          "type": "address"
        },
        {
          "indexed": false,
          "internalType": "bool",
          "name": "approved",
          "type": "bool"
        }
      ],
      "name": "ApprovalForAll",
      "type": "event"
    },
    {
      "anonymous": false,
      "inputs": [
        {
          "indexed": false,
          "internalType": "uint256",
          "name": "_fromTokenId",
          "type": "uint256"
        },
        {
          "indexed": false,
          "internalType": "uint256",
          "name": "_toTokenId",
          "type": "uint256"
        }
      ],
      "name": "BatchMetadataUpdate",
      "type": "event"
    },
    {
      "anonymous": false,
      "inputs": [
        {
          "indexed": false,
          "internalType": "uint256",
          "name": "_tokenId",
          "type": "uint256"
        }
      ],
      "name": "MetadataUpdate",
      "type": "event"
    },
    {
      "anonymous": false,
      "inputs": [
        {
          "indexed": true,
          "internalType": "address",
          "name": "previousOwner",
          "type": "address"
        },
        {
          "indexed": true,
          "internalType": "address",
          "name": "newOwner",
          "type": "address"
        }
      ],
      "name": "OwnershipTransferred",
      "type": "event"
    },
    {
      "anonymous": false,
      "inputs": [
        {
          "indexed": true,
          "internalType": "address",
          "name": "from",
          "type": "address"
        },
        {
          "indexed": true,
          "internalType": "address",
          "name": "to",
          "type": "address"
        },
        {
          "indexed": true,
          "internalType": "uint256",
          "name": "tokenId",
          "type": "uint256"
        }
      ],
      "name": "Transfer",
      "type": "event"
    },
    {
      "inputs": [
        {
          "internalType": "address",
          "name": "to",
          "type": "address"
        },
        {
          "internalType": "uint256",
          "name": "tokenId",
          "type": "uint256"
        }
      ],
      "name": "approve",
      "outputs": [],
      "stateMutability": "nonpayable",
      "type": "function"
    },
    {
      "inputs": [
        {
          "internalType": "address",
          "name": "owner",
          "type": "address"
        }
      ],
      "name": "balanceOf",
      "outputs": [
        {
          "internalType": "uint256",
          "name": "",
          "type": "uint256"
        }
      ],
      "stateMutability": "view",
      "type": "function"
    },
    {
      "inputs": [
        {
          "internalType": "uint256",
          "name": "tokenId",
          "type": "uint256"
        }
      ],
      "name": "getApproved",
      "outputs": [
        {
          "internalType": "address",
          "name": "",
          "type": "address"
        }
      ],
      "stateMutability": "view",
      "type": "function"
    },
    {
      "inputs": [
        {
          "internalType": "uint256",
          "name": "tokenId",
          "type": "uint256"
        }
      ],
      "name": "getCertificateData",
      "outputs": [
        {
          "components": [
            {
              "internalType": "string",
              "name": "studentName",
              "type": "string"
            },
            {
              "internalType": "string",
              "name": "courseName",
              "type": "string"
            },
            {
              "internalType": "string",
              "name": "issueDate",
              "type": "string"
            },
            {
              "internalType": "string",
              "name": "grade",
              "type": "string"
            },
            {
              "internalType": "string",
              "name": "ipfsHash",
              "type": "string"
            }
          ],
          "internalType": "struct CertificateNFT.CertificateData",
          "name": "",
          "type": "tuple"
        }
      ],
      "stateMutability": "view",
      "type": "function"
    },
    {
      "inputs": [
        {
          "internalType": "address",
          "name": "owner",
          "type": "address"
        },
        {
          "internalType": "address",
          "name": "operator",
          "type": "address"
        }
      ],
      "name": "isApprovedForAll",
      "outputs": [
        {
          "internalType": "bool",
          "name": "",
          "type": "bool"
        }
      ],
      "stateMutability": "view",
      "type": "function"
    },
    {
      "inputs": [
        {
          "internalType": "address",
          "name": "studentWallet",
          "type": "address"
        },
        {
          "internalType": "string",
          "name": "studentName",
          "type": "string"
        },
        {
          "internalType": "string",
          "name": "courseName",
          "type": "string"
        },
        {
          "internalType": "string",
          "name": "issueDate",
          "type": "string"
        },
        {
          "internalType": "string",
          "name": "grade",
          "type": "string"
        },
        {
          "internalType": "string",
          "name": "ipfsHash",
          "type": "string"
        }
      ],
      "name": "mintCertificate",
      "outputs": [],
      "stateMutability": "nonpayable",
      "type": "function"
    },
    {
      "inputs": [],
      "name": "name",
      "outputs": [
        {
          "internalType": "string",
          "name": "",
          "type": "string"
        }
      ],
      "stateMutability": "view",
      "type": "function"
    },
    {
      "inputs": [],
      "name": "nextTokenId",
      "outputs": [
        {
          "internalType": "uint256",
          "name": "",
          "type": "uint256"
        }
      ],
      "stateMutability": "view",
      "type": "function"
    },
    {
      "inputs": [],
      "name": "owner",
      "outputs": [
        {
          "internalType": "address",
          "name": "",
          "type": "address"
        }
      ],
      "stateMutability": "view",
      "type": "function"
    },
    {
      "inputs": [
        {
          "internalType": "uint256",
          "name": "tokenId",
          "type": "uint256"
        }
      ],
      "name": "ownerOf",
      "outputs": [
        {
          "internalType": "address",
          "name": "",
          "type": "address"
        }
      ],
      "stateMutability": "view",
      "type": "function"
    },
    {
      "inputs": [],
      "name": "renounceOwnership",
      "outputs": [],
      "stateMutability": "nonpayable",
      "type": "function"
    },
    {
      "inputs": [
        {
          "internalType": "address",
          "name": "from",
          "type": "address"
        },
        {
          "internalType": "address",
          "name": "to",
          "type": "address"
        },
        {
          "internalType": "uint256",
          "name": "tokenId",
          "type": "uint256"
        }
      ],
      "name": "safeTransferFrom",
      "outputs": [],
      "stateMutability": "nonpayable",
      "type": "function"
    },
    {
      "inputs": [
        {
          "internalType": "address",
          "name": "from",
          "type": "address"
        },
        {
          "internalType": "address",
          "name": "to",
          "type": "address"
        },
        {
          "internalType": "uint256",
          "name": "tokenId",
          "type": "uint256"
        },
        {
          "internalType": "bytes",
          "name": "data",
          "type": "bytes"
        }
      ],
      "name": "safeTransferFrom",
      "outputs": [],
      "stateMutability": "nonpayable",
      "type": "function"
    },
    {
      "inputs": [
        {
          "internalType": "address",
          "name": "operator",
          "type": "address"
        },
        {
          "internalType": "bool",
          "name": "approved",
          "type": "bool"
        }
      ],
      "name": "setApprovalForAll",
      "outputs": [],
      "stateMutability": "nonpayable",
      "type": "function"
    },
    {
      "inputs": [
        {
          "internalType": "bytes4",
          "name": "interfaceId",
          "type": "bytes4"
        }
      ],
      "name": "supportsInterface",
      "outputs": [
        {
          "internalType": "bool",
          "name": "",
          "type": "bool"
        }
      ],
      "stateMutability": "view",
      "type": "function"
    },
    {
      "inputs": [],
      "name": "symbol",
      "outputs": [
        {
          "internalType": "string",
          "name": "",
          "type": "string"
        }
      ],
      "stateMutability": "view",
      "type": "function"
    },
    {
      "inputs": [
        {
          "internalType": "uint256",
          "name": "tokenId",
          "type": "uint256"
        }
      ],
      "name": "tokenURI",
      "outputs": [
        {
          "internalType": "string",
          "name": "",
          "type": "string"
        }
      ],
      "stateMutability": "view",
      "type": "function"
    },
    {
      "inputs": [
        {
          "internalType": "address",
          "name": "from",
          "type": "address"
        },
        {
          "internalType": "address",
          "name": "to",
          "type": "address"
        },
        {
          "internalType": "uint256",
          "name": "tokenId",
          "type": "uint256"
        }
      ],
      "name": "transferFrom",
      "outputs": [],
      "stateMutability": "nonpayable",
      "type": "function"
    },
    {
      "inputs": [
        {
          "internalType": "address",
          "name": "newOwner",
          "type": "address"
        }
      ],
      "name": "transferOwnership",
      "outputs": [],
      "stateMutability": "nonpayable",
      "type": "function"
    }
  ],
  "bytecode": "0x60806040523480156200001157600080fd5b50336040518060400160405280601381526020017f45647550726f6f664365727469666963617465000000000000000000000000008152506040518060400160405280600881526020017f45445550524f4f46000000000000000000000000000000000000000000000000815250816000908162000090919062000472565b508060019081620000a2919062000472565b505050600073ffffffffffffffffffffffffffffffffffffffff168173ffffffffffffffffffffffffffffffffffffffff16036200011a5760006040517f1e4fbdf70000000000000000000000000000000000000000000000000000000081526004016200011191906200059e565b60405180910390fd5b6200012b816200013260201b60201c565b50620005bb565b6000600760009054906101000a900473ffffffffffffffffffffffffffffffffffffffff16905081600760006101000a81548173ffffffffffffffffffffffffffffffffffffffff021916908373ffffffffffffffffffffffffffffffffffffffff1602179055508173ffffffffffffffffffffffffffffffffffffffff168173ffffffffffffffffffffffffffffffffffffffff167f8be0079c531659141344cd1fd0a4f28419497f9722a3daafe3b4186f6b6457e060405160405180910390a35050565b600081519050919050565b7f4e487b7100000000000000000000000000000000000000000000000000000000600052604160045260246000fd5b7f4e487b7100000000000000000000000000000000000000000000000000000000600052602260045260246000fd5b600060028204905060018216806200027a57607f821691505b60208210810362000290576200028f62000232565b5b50919050565b60008190508160005260206000209050919050565b60006020601f8301049050919050565b600082821b905092915050565b600060088302620002fa7fffffffffffffffffffffffffffffffffffffffffffffffffffffffffffffffff82620002bb565b620003068683620002bb565b95508019841693508086168417925050509392505050565b6000819050919050565b6000819050919050565b6000620003536200034d62000347846200031e565b62000328565b6200031e565b9050919050565b6000819050919050565b6200036f8362000332565b620003876200037e826200035a565b848454620002c8565b825550505050565b600090565b6200039e6200038f565b620003ab81848462000364565b505050565b5b81811015620003d357620003c760008262000394565b600181019050620003b1565b5050565b601f8211156200042257620003ec8162000296565b620003f784620002ab565b8101602085101562000407578190505b6200041f6200041685620002ab565b830182620003b0565b50505b505050565b600082821c905092915050565b6000620004476000198460080262000427565b1980831691505092915050565b600062000462838362000434565b9150826002028217905092915050565b6200047d82620001f8565b67ffffffffffffffff81111562000499576200049862000203565b5b620004a5825462000261565b620004b2828285620003d7565b600060209050601f831160018114620004ea5760008415620004d5578287015190505b620004e1858262000454565b86555062000551565b601f198416620004fa8662000296565b60005b828110156200052457848901518255600182019150602085019450602081019050620004fd565b8683101562000544578489015162000540601f89168262000434565b8355505b6001600288020188555050505b505050505050565b600073ffffffffffffffffffffffffffffffffffffffff82169050919050565b6000620005868262000559565b9050919050565b620005988162000579565b82525050565b6000602082019050620005b560008301846200058d565b92915050565b612cbc80620005cb6000396000f3fe608060405234801561001057600080fd5b50600436106101215760003560e01c8063715018a6116100ad578063a22cb46511610071578063a22cb46514610308578063b88d4fde14610324578063c87b56dd14610340578063e985e9c514610370578063f2fde38b146103a057610121565b8063715018a61461028857806375794a3c146102925780638d13d72d146102b05780638da5cb5b146102cc57806395d89b41146102ea57610121565b806323b872dd116100f457806323b872dd146101c057806331494bbb146101dc57806342842e0e1461020c5780636352211e1461022857806370a082311461025857610121565b806301ffc9a71461012657806306fdde0314610156578063081812fc14610174578063095ea7b3146101a4575b600080fd5b610140600480360381019061013b9190611eed565b6103bc565b60405161014d9190611f35565b60405180910390f35b61015e61041d565b60405161016b9190611fe0565b60405180910390f35b61018e60048036038101906101899190612038565b6104af565b60405161019b91906120a6565b60405180910390f35b6101be60048036038101906101b991906120ed565b6104cb565b005b6101da60048036038101906101d5919061212d565b6104e1565b005b6101f660048036038101906101f19190612038565b6105e3565b604051610203919061225c565b60405180910390f35b6102266004803603810190610221919061212d565b61092e565b005b610242600480360381019061023d9190612038565b61094e565b60405161024f91906120a6565b60405180910390f35b610272600480360381019061026d919061227e565b610960565b60405161027f91906122ba565b60405180910390f35b610290610a1a565b005b61029a610a2e565b6040516102a791906122ba565b60405180910390f35b6102ca60048036038101906102c5919061240a565b610a34565b005b6102d4610b19565b6040516102e191906120a6565b60405180910390f35b6102f2610b43565b6040516102ff9190611fe0565b60405180910390f35b610322600480360381019061031d919061254f565b610bd5565b005b61033e60048036038101906103399190612630565b610beb565b005b61035a60048036038101906103559190612038565b610c10565b6040516103679190611fe0565b60405180910390f35b61038a600480360381019061038591906126b3565b610d23565b6040516103979190611f35565b60405180910390f35b6103ba60048036038101906103b5919061227e565b610db7565b005b6000634906490660e01b7bffffffffffffffffffffffffffffffffffffffffffffffffffffffff1916827bffffffffffffffffffffffffffffffffffffffffffffffffffffffff19161480610416575061041582610e3d565b5b9050919050565b60606000805461042c90612722565b80601f016020809104026020016040519081016040528092919081815260200182805461045890612722565b80156104a55780601f1061047a576101008083540402835291602001916104a5565b820191906000526020600020905b81548152906001019060200180831161048857829003601f168201915b5050505050905090565b60006104ba82610f1f565b506104c482610fa7565b9050919050565b6104dd82826104d8610fe4565b610fec565b5050565b600073ffffffffffffffffffffffffffffffffffffffff168273ffffffffffffffffffffffffffffffffffffffff16036105535760006040517f64a0ae9200000000000000000000000000000000000000000000000000000000815260040161054a91906120a6565b60405180910390fd5b60006105678383610562610fe4565b610ffe565b90508373ffffffffffffffffffffffffffffffffffffffff168173ffffffffffffffffffffffffffffffffffffffff16146105dd578382826040517f64283d7b0000000000000000000000000000000000000000000000000000000081526004016105d493929190612753565b60405180910390fd5b50505050565b6105eb611e52565b600854821061062f576040517f08c379a0000000000000000000000000000000000000000000000000000000008152600401610626906127d6565b60405180910390fd5b600960008381526020019081526020016000206040518060a001604052908160008201805461065d90612722565b80601f016020809104026020016040519081016040528092919081815260200182805461068990612722565b80156106d65780601f106106ab576101008083540402835291602001916106d6565b820191906000526020600020905b8154815290600101906020018083116106b957829003601f168201915b505050505081526020016001820180546106ef90612722565b80601f016020809104026020016040519081016040528092919081815260200182805461071b90612722565b80156107685780601f1061073d57610100808354040283529160200191610768565b820191906000526020600020905b81548152906001019060200180831161074b57829003601f168201915b5050505050815260200160028201805461078190612722565b80601f01602080910402602001604051908101604052809291908181526020018280546107ad90612722565b80156107fa5780601f106107cf576101008083540402835291602001916107fa565b820191906000526020600020905b8154815290600101906020018083116107dd57829003601f168201915b5050505050815260200160038201805461081390612722565b80601f016020809104026020016040519081016040528092919081815260200182805461083f90612722565b801561088c5780601f106108615761010080835404028352916020019161088c565b820191906000526020600020905b81548152906001019060200180831161086f57829003601f168201915b505050505081526020016004820180546108a590612722565b80601f01602080910402602001604051908101604052809291908181526020018280546108d190612722565b801561091e5780601f106108f35761010080835404028352916020019161091e565b820191906000526020600020905b81548152906001019060200180831161090157829003601f168201915b5050505050815250509050919050565b61094983838360405180602001604052806000815250610beb565b505050565b600061095982610f1f565b9050919050565b60008073ffffffffffffffffffffffffffffffffffffffff168273ffffffffffffffffffffffffffffffffffffffff16036109d35760006040517f89c62b640000000000000000000000000000000000000000000000000000000081526004016109ca91906120a6565b60405180910390fd5b600360008373ffffffffffffffffffffffffffffffffffffffff1673ffffffffffffffffffffffffffffffffffffffff168152602001908152602001600020549050919050565b610a22611218565b610a2c600061129f565b565b60085481565b610a3c611218565b60006008549050610a4d8782611365565b6040518060a0016040528087815260200186815260200185815260200184815260200183815250600960008381526020019081526020016000206000820151816000019081610a9c91906129a2565b506020820151816001019081610ab291906129a2565b506040820151816002019081610ac891906129a2565b506060820151816003019081610ade91906129a2565b506080820151816004019081610af491906129a2565b5090505060086000815480929190610b0b90612aa3565b919050555050505050505050565b6000600760009054906101000a900473ffffffffffffffffffffffffffffffffffffffff16905090565b606060018054610b5290612722565b80601f0160208091040260200160405190810160405280929190818152602001828054610b7e90612722565b8015610bcb5780601f10610ba057610100808354040283529160200191610bcb565b820191906000526020600020905b815481529060010190602001808311610bae57829003601f168201915b5050505050905090565b610be7610be0610fe4565b8383611383565b5050565b610bf68484846104e1565b610c0a610c01610fe4565b858585856114f2565b50505050565b6060610c1b82610f1f565b506000600660008481526020019081526020016000208054610c3c90612722565b80601f0160208091040260200160405190810160405280929190818152602001828054610c6890612722565b8015610cb55780601f10610c8a57610100808354040283529160200191610cb5565b820191906000526020600020905b815481529060010190602001808311610c9857829003601f168201915b505050505090506000610cc66116a3565b90506000815103610cdb578192505050610d1e565b600082511115610d10578082604051602001610cf8929190612b27565b60405160208183030381529060405292505050610d1e565b610d19846116ba565b925050505b919050565b6000600560008473ffffffffffffffffffffffffffffffffffffffff1673ffffffffffffffffffffffffffffffffffffffff16815260200190815260200160002060008373ffffffffffffffffffffffffffffffffffffffff1673ffffffffffffffffffffffffffffffffffffffff16815260200190815260200160002060009054906101000a900460ff16905092915050565b610dbf611218565b600073ffffffffffffffffffffffffffffffffffffffff168173ffffffffffffffffffffffffffffffffffffffff1603610e315760006040517f1e4fbdf7000000000000000000000000000000000000000000000000000000008152600401610e2891906120a6565b60405180910390fd5b610e3a8161129f565b50565b60007f80ac58cd000000000000000000000000000000000000000000000000000000007bffffffffffffffffffffffffffffffffffffffffffffffffffffffff1916827bffffffffffffffffffffffffffffffffffffffffffffffffffffffff19161480610f0857507f5b5e139f000000000000000000000000000000000000000000000000000000007bffffffffffffffffffffffffffffffffffffffffffffffffffffffff1916827bffffffffffffffffffffffffffffffffffffffffffffffffffffffff1916145b80610f185750610f1782611723565b5b9050919050565b600080610f2b8361178d565b9050600073ffffffffffffffffffffffffffffffffffffffff168173ffffffffffffffffffffffffffffffffffffffff1603610f9e57826040517f7e273289000000000000000000000000000000000000000000000000000000008152600401610f9591906122ba565b60405180910390fd5b80915050919050565b60006004600083815260200190815260200160002060009054906101000a900473ffffffffffffffffffffffffffffffffffffffff169050919050565b600033905090565b610ff983838360016117ca565b505050565b60008061100a8461178d565b9050600073ffffffffffffffffffffffffffffffffffffffff168373ffffffffffffffffffffffffffffffffffffffff161461104c5761104b81848661198f565b5b600073ffffffffffffffffffffffffffffffffffffffff168173ffffffffffffffffffffffffffffffffffffffff16146110dd5761108e6000856000806117ca565b6001600360008373ffffffffffffffffffffffffffffffffffffffff1673ffffffffffffffffffffffffffffffffffffffff168152602001908152602001600020600082825403925050819055505b600073ffffffffffffffffffffffffffffffffffffffff168573ffffffffffffffffffffffffffffffffffffffff1614611160576001600360008773ffffffffffffffffffffffffffffffffffffffff1673ffffffffffffffffffffffffffffffffffffffff168152602001908152602001600020600082825401925050819055505b846002600086815260200190815260200160002060006101000a81548173ffffffffffffffffffffffffffffffffffffffff021916908373ffffffffffffffffffffffffffffffffffffffff160217905550838573ffffffffffffffffffffffffffffffffffffffff168273ffffffffffffffffffffffffffffffffffffffff167fddf252ad1be2c89b69c2b068fc378daa952ba7f163c4a11628f55a4df523b3ef60405160405180910390a4809150509392505050565b611220610fe4565b73ffffffffffffffffffffffffffffffffffffffff1661123e610b19565b73ffffffffffffffffffffffffffffffffffffffff161461129d57611261610fe4565b6040517f118cdaa700000000000000000000000000000000000000000000000000000000815260040161129491906120a6565b60405180910390fd5b565b6000600760009054906101000a900473ffffffffffffffffffffffffffffffffffffffff16905081600760006101000a81548173ffffffffffffffffffffffffffffffffffffffff021916908373ffffffffffffffffffffffffffffffffffffffff1602179055508173ffffffffffffffffffffffffffffffffffffffff168173ffffffffffffffffffffffffffffffffffffffff167f8be0079c531659141344cd1fd0a4f28419497f9722a3daafe3b4186f6b6457e060405160405180910390a35050565b61137f828260405180602001604052806000815250611a53565b5050565b600073ffffffffffffffffffffffffffffffffffffffff168273ffffffffffffffffffffffffffffffffffffffff16036113f457816040517f5b08ba180000000000000000000000000000000000000000000000000000000081526004016113eb91906120a6565b60405180910390fd5b80600560008573ffffffffffffffffffffffffffffffffffffffff1673ffffffffffffffffffffffffffffffffffffffff16815260200190815260200160002060008473ffffffffffffffffffffffffffffffffffffffff1673ffffffffffffffffffffffffffffffffffffffff16815260200190815260200160002060006101000a81548160ff0219169083151502179055508173ffffffffffffffffffffffffffffffffffffffff168373ffffffffffffffffffffffffffffffffffffffff167f17307eab39ab6107e8899845ad3d59bd9653f200f220920489ca2b5937696c31836040516114e59190611f35565b60405180910390a3505050565b60008373ffffffffffffffffffffffffffffffffffffffff163b111561169c578273ffffffffffffffffffffffffffffffffffffffff1663150b7a02868685856040518563ffffffff1660e01b81526004016115519493929190612ba0565b6020604051808303816000875af192505050801561158d57506040513d601f19601f8201168201806040525081019061158a9190612c01565b60015b611611573d80600081146115bd576040519150601f19603f3d011682016040523d82523d6000602084013e6115c2565b606091505b50600081510361160957836040517f64a0ae9200000000000000000000000000000000000000000000000000000000815260040161160091906120a6565b60405180910390fd5b805181602001fd5b63150b7a0260e01b7bffffffffffffffffffffffffffffffffffffffffffffffffffffffff1916817bffffffffffffffffffffffffffffffffffffffffffffffffffffffff19161461169a57836040517f64a0ae9200000000000000000000000000000000000000000000000000000000815260040161169191906120a6565b60405180910390fd5b505b5050505050565b606060405180602001604052806000815250905090565b60606116c582610f1f565b5060006116d06116a3565b905060008151116116f0576040518060200160405280600081525061171b565b806116fa84611a77565b60405160200161170b929190612b27565b6040516020818303038152906040525b915050919050565b60007f01ffc9a7000000000000000000000000000000000000000000000000000000007bffffffffffffffffffffffffffffffffffffffffffffffffffffffff1916827bffffffffffffffffffffffffffffffffffffffffffffffffffffffff1916149050919050565b60006002600083815260200190815260200160002060009054906101000a900473ffffffffffffffffffffffffffffffffffffffff169050919050565b80806118035750600073ffffffffffffffffffffffffffffffffffffffff168273ffffffffffffffffffffffffffffffffffffffff1614155b1561193757600061181384610f1f565b9050600073ffffffffffffffffffffffffffffffffffffffff168373ffffffffffffffffffffffffffffffffffffffff161415801561187e57508273ffffffffffffffffffffffffffffffffffffffff168173ffffffffffffffffffffffffffffffffffffffff1614155b8015611891575061188f8184610d23565b155b156118d357826040517fa9fbf51f0000000000000000000000000000000000000000000000000000000081526004016118ca91906120a6565b60405180910390fd5b811561193557838573ffffffffffffffffffffffffffffffffffffffff168273ffffffffffffffffffffffffffffffffffffffff167f8c5be1e5ebec7d5bd14f71427d1e84f3dd0314c0f7b2291e5b200ac8c7c3b92560405160405180910390a45b505b836004600085815260200190815260200160002060006101000a81548173ffffffffffffffffffffffffffffffffffffffff021916908373ffffffffffffffffffffffffffffffffffffffff16021790555050505050565b61199a838383611b45565b611a4e57600073ffffffffffffffffffffffffffffffffffffffff168373ffffffffffffffffffffffffffffffffffffffff1603611a0f57806040517f7e273289000000000000000000000000000000000000000000000000000000008152600401611a0691906122ba565b60405180910390fd5b81816040517f177e802f000000000000000000000000000000000000000000000000000000008152600401611a45929190612c2e565b60405180910390fd5b505050565b611a5d8383611c06565b611a72611a68610fe4565b60008585856114f2565b505050565b606060006001611a8684611cff565b01905060008167ffffffffffffffff811115611aa557611aa46122df565b5b6040519080825280601f01601f191660200182016040528015611ad75781602001600182028036833780820191505090505b509050600082602001820190505b600115611b3a578080600190039150507f3031323334353637383961626364656600000000000000000000000000000000600a86061a8153600a8581611b2e57611b2d612c57565b5b04945060008503611ae5575b819350505050919050565b60008073ffffffffffffffffffffffffffffffffffffffff168373ffffffffffffffffffffffffffffffffffffffff1614158015611bfd57508273ffffffffffffffffffffffffffffffffffffffff168473ffffffffffffffffffffffffffffffffffffffff161480611bbe5750611bbd8484610d23565b5b80611bfc57508273ffffffffffffffffffffffffffffffffffffffff16611be483610fa7565b73ffffffffffffffffffffffffffffffffffffffff16145b5b90509392505050565b600073ffffffffffffffffffffffffffffffffffffffff168273ffffffffffffffffffffffffffffffffffffffff1603611c785760006040517f64a0ae92000000000000000000000000000000000000000000000000000000008152600401611c6f91906120a6565b60405180910390fd5b6000611c8683836000610ffe565b9050600073ffffffffffffffffffffffffffffffffffffffff168173ffffffffffffffffffffffffffffffffffffffff1614611cfa5760006040517f73c6ac6e000000000000000000000000000000000000000000000000000000008152600401611cf191906120a6565b60405180910390fd5b505050565b600080600090507a184f03e93ff9f4daa797ed6e38ed64bf6a1f0100000000000000008310611d5d577a184f03e93ff9f4daa797ed6e38ed64bf6a1f0100000000000000008381611d5357611d52612c57565b5b0492506040810190505b6d04ee2d6d415b85acef81000000008310611d9a576d04ee2d6d415b85acef81000000008381611d9057611d8f612c57565b5b0492506020810190505b662386f26fc100008310611dc957662386f26fc100008381611dbf57611dbe612c57565b5b0492506010810190505b6305f5e1008310611df2576305f5e1008381611de857611de7612c57565b5b0492506008810190505b6127108310611e17576127108381611e0d57611e0c612c57565b5b0492506004810190505b60648310611e3a5760648381611e3057611e2f612c57565b5b0492506002810190505b600a8310611e49576001810190505b80915050919050565b6040518060a0016040528060608152602001606081526020016060815260200160608152602001606081525090565b6000604051905090565b600080fd5b600080fd5b60007fffffffff0000000000000000000000000000000000000000000000000000000082169050919050565b611eca81611e95565b8114611ed557600080fd5b50565b600081359050611ee781611ec1565b92915050565b600060208284031215611f0357611f02611e8b565b5b6000611f1184828501611ed8565b91505092915050565b60008115159050919050565b611f2f81611f1a565b82525050565b6000602082019050611f4a6000830184611f26565b92915050565b600081519050919050565b600082825260208201905092915050565b60005b83811015611f8a578082015181840152602081019050611f6f565b60008484015250505050565b6000601f19601f8301169050919050565b6000611fb282611f50565b611fbc8185611f5b565b9350611fcc818560208601611f6c565b611fd581611f96565b840191505092915050565b60006020820190508181036000830152611ffa8184611fa7565b905092915050565b6000819050919050565b61201581612002565b811461202057600080fd5b50565b6000813590506120328161200c565b92915050565b60006020828403121561204e5761204d611e8b565b5b600061205c84828501612023565b91505092915050565b600073ffffffffffffffffffffffffffffffffffffffff82169050919050565b600061209082612065565b9050919050565b6120a081612085565b82525050565b60006020820190506120bb6000830184612097565b92915050565b6120ca81612085565b81146120d557600080fd5b50565b6000813590506120e7816120c1565b92915050565b6000806040838503121561210457612103611e8b565b5b6000612112858286016120d8565b925050602061212385828601612023565b9150509250929050565b60008060006060848603121561214657612145611e8b565b5b6000612154868287016120d8565b9350506020612165868287016120d8565b925050604061217686828701612023565b9150509250925092565b600082825260208201905092915050565b600061219c82611f50565b6121a68185612180565b93506121b6818560208601611f6c565b6121bf81611f96565b840191505092915050565b600060a08301600083015184820360008601526121e78282612191565b915050602083015184820360208601526122018282612191565b9150506040830151848203604086015261221b8282612191565b915050606083015184820360608601526122358282612191565b9150506080830151848203608086015261224f8282612191565b9150508091505092915050565b6000602082019050818103600083015261227681846121ca565b905092915050565b60006020828403121561229457612293611e8b565b5b60006122a2848285016120d8565b91505092915050565b6122b481612002565b82525050565b60006020820190506122cf60008301846122ab565b92915050565b600080fd5b600080fd5b7f4e487b7100000000000000000000000000000000000000000000000000000000600052604160045260246000fd5b61231782611f96565b810181811067ffffffffffffffff82111715612336576123356122df565b5b80604052505050565b6000612349611e81565b9050612355828261230e565b919050565b600067ffffffffffffffff821115612375576123746122df565b5b61237e82611f96565b9050602081019050919050565b82818337600083830152505050565b60006123ad6123a88461235a565b61233f565b9050828152602081018484840111156123c9576123c86122da565b5b6123d484828561238b565b509392505050565b600082601f8301126123f1576123f06122d5565b5b813561240184826020860161239a565b91505092915050565b60008060008060008060c0878903121561242757612426611e8b565b5b600061243589828a016120d8565b965050602087013567ffffffffffffffff81111561245657612455611e90565b5b61246289828a016123dc565b955050604087013567ffffffffffffffff81111561248357612482611e90565b5b61248f89828a016123dc565b945050606087013567ffffffffffffffff8111156124b0576124af611e90565b5b6124bc89828a016123dc565b935050608087013567ffffffffffffffff8111156124dd576124dc611e90565b5b6124e989828a016123dc565b92505060a087013567ffffffffffffffff81111561250a57612509611e90565b5b61251689828a016123dc565b9150509295509295509295565b61252c81611f1a565b811461253757600080fd5b50565b60008135905061254981612523565b92915050565b6000806040838503121561256657612565611e8b565b5b6000612574858286016120d8565b92505060206125858582860161253a565b9150509250929050565b600067ffffffffffffffff8211156125aa576125a96122df565b5b6125b382611f96565b9050602081019050919050565b60006125d36125ce8461258f565b61233f565b9050828152602081018484840111156125ef576125ee6122da565b5b6125fa84828561238b565b509392505050565b600082601f830112612617576126166122d5565b5b81356126278482602086016125c0565b91505092915050565b6000806000806080858703121561264a57612649611e8b565b5b6000612658878288016120d8565b9450506020612669878288016120d8565b935050604061267a87828801612023565b925050606085013567ffffffffffffffff81111561269b5761269a611e90565b5b6126a787828801612602565b91505092959194509250565b600080604083850312156126ca576126c9611e8b565b5b60006126d8858286016120d8565b92505060206126e9858286016120d8565b9150509250929050565b7f4e487b7100000000000000000000000000000000000000000000000000000000600052602260045260246000fd5b6000600282049050600182168061273a57607f821691505b60208210810361274d5761274c6126f3565b5b50919050565b60006060820190506127686000830186612097565b61277560208301856122ab565b6127826040830184612097565b949350505050565b7f436572746966696361746520646f6573206e6f74206578697374000000000000600082015250565b60006127c0601a83611f5b565b91506127cb8261278a565b602082019050919050565b600060208201905081810360008301526127ef816127b3565b9050919050565b60008190508160005260206000209050919050565b60006020601f8301049050919050565b600082821b905092915050565b6000600883026128587fffffffffffffffffffffffffffffffffffffffffffffffffffffffffffffffff8261281b565b612862868361281b565b95508019841693508086168417925050509392505050565b6000819050919050565b600061289f61289a61289584612002565b61287a565b612002565b9050919050565b6000819050919050565b6128b983612884565b6128cd6128c5826128a6565b848454612828565b825550505050565b600090565b6128e26128d5565b6128ed8184846128b0565b505050565b5b81811015612911576129066000826128da565b6001810190506128f3565b5050565b601f82111561295657612927816127f6565b6129308461280b565b8101602085101561293f578190505b61295361294b8561280b565b8301826128f2565b50505b505050565b600082821c905092915050565b60006129796000198460080261295b565b1980831691505092915050565b60006129928383612968565b9150826002028217905092915050565b6129ab82611f50565b67ffffffffffffffff8111156129c4576129c36122df565b5b6129ce8254612722565b6129d9828285612915565b600060209050601f831160018114612a0c57600084156129fa578287015190505b612a048582612986565b865550612a6c565b601f198416612a1a866127f6565b60005b82811015612a4257848901518255600182019150602085019450602081019050612a1d565b86831015612a5f5784890151612a5b601f891682612968565b8355505b6001600288020188555050505b505050505050565b7f4e487b7100000000000000000000000000000000000000000000000000000000600052601160045260246000fd5b6000612aae82612002565b91507fffffffffffffffffffffffffffffffffffffffffffffffffffffffffffffffff8203612ae057612adf612a74565b5b600182019050919050565b600081905092915050565b6000612b0182611f50565b612b0b8185612aeb565b9350612b1b818560208601611f6c565b80840191505092915050565b6000612b338285612af6565b9150612b3f8284612af6565b91508190509392505050565b600081519050919050565b600082825260208201905092915050565b6000612b7282612b4b565b612b7c8185612b56565b9350612b8c818560208601611f6c565b612b9581611f96565b840191505092915050565b6000608082019050612bb56000830187612097565b612bc26020830186612097565b612bcf60408301856122ab565b8181036060830152612be18184612b67565b905095945050505050565b600081519050612bfb81611ec1565b92915050565b600060208284031215612c1757612c16611e8b565b5b6000612c2584828501612bec565b91505092915050565b6000604082019050612c436000830185612097565b612c5060208301846122ab565b9392505050565b7f4e487b7100000000000000000000000000000000000000000000000000000000600052601260045260246000fdfea26469706673582212201790d8bf85a9f8c3e10e3f15eb7011acdd686fe06a99032d7b199b98aa060f2864736f6c63430008140033",
  "linkReferences": {},
  "deployedLinkReferences": {}
}