{
  "_format": "hh-sol-artifact-1",
  "contractName": "MyNFT",
  "sourceName": "contracts/MyNFT.sol",
  "abi": [
    {
      "inputs": [
        {
          "internalType": "string",
          "name": "name_",
          "type": "string"
        },
        {
          "internalType": "string",
          "name": "symbol_",
          "type": "string"
        }
      ],
      "stateMutability": "nonpayable",
      "type": "constructor"
    },
    {
      "inputs": [
        {
          "internalType": "address",
          "name": "sender",
          "type": "address"
        },
        {
          "internalType": "uint256",
          "name": "tokenId",
          "type": "uint256"
        },
        {
          "internalType": "address",
          "name": "owner",
          "type": "address"
        }
      ],
      "name": "ERC721IncorrectOwner",
      "type": "error"
    },
    {
      "inputs": [
        {
          "internalType": "address",
          "name": "operator",
          "type": "address"
        },
        {
          "internalType": "uint256",
          "name": "tokenId",
          "type": "uint256"
        }
      ],
      "name": "ERC721InsufficientApproval",
      "type": "error"
    },
    {
      "inputs": [
        {
          "internalType": "address",
          "name": "approver",
          "type": "address"
        }
      ],
      "name": "ERC721InvalidApprover",
      "type": "error"
    },
    {
      "inputs": [
        {
          "internalType": "address",
          "name": "operator",
          "type": "address"
        }
      ],
      "name": "ERC721InvalidOperator",
      "type": "error"
    },
    {
      "inputs": [
        {
          "internalType": "address",
          "name": "owner",
          "type": "address"
        }
      ],
      "name": "ERC721InvalidOwner",
      "type": "error"
    },
    {
      "inputs": [
        {
          "internalType": "address",
          "name": "receiver",
          "type": "address"
        }
      ],
      "name": "ERC721InvalidReceiver",
      "type": "error"
    },
    {
      "inputs": [
        {
          "internalType": "address",
          "name": "sender",
          "type": "address"
        }
      ],
      "name": "ERC721InvalidSender",
      "type": "error"
    },
    {
      "inputs": [
        {
          "internalType": "uint256",
          "name": "tokenId",
          "type": "uint256"
        }
      ],
      "name": "ERC721NonexistentToken",
      "type": "error"
    },
    {
      "inputs": [
        {
          "internalType": "address",
          "name": "owner",
          "type": "address"
        }
      ],
      "name": "OwnableInvalidOwner",
      "type": "error"
    },
    {
      "inputs": [
        {
          "internalType": "address",
          "name": "account",
          "type": "address"
        }
      ],
      "name": "OwnableUnauthorizedAccount",
      "type": "error"
    },
    {
      "anonymous": false,
      "inputs": [
        {
          "indexed": true,
          "internalType": "address",
          "name": "owner",
          "type": "address"
        },
        {
          "indexed": true,
          "internalType": "address",
          "name": "approved",
          "type": "address"
        },
        {
          "indexed": true,
          "internalType": "uint256",
          "name": "tokenId",
          "type": "uint256"
        }
      ],
      "name": "Approval",
      "type": "event"
    },
    {
      "anonymous": false,
      "inputs": [
        {
          "indexed": true,
          "internalType": "address",
          "name": "owner",
          "type": "address"
        },
        {
          "indexed": true,
          "internalType": "address",
          "name": "operator",
          "type": "address"
        },
        {
          "indexed": false,
          "internalType": "bool",
          "name": "approved",
          "type": "bool"
        }
      ],
      "name": "ApprovalForAll",
      "type": "event"
    },
    {
      "anonymous": false,
      "inputs": [
        {
          "indexed": false,
          "internalType": "uint256",
          "name": "_fromTokenId",
          "type": "uint256"
        },
        {
          "indexed": false,
          "internalType": "uint256",
          "name": "_toTokenId",
          "type": "uint256"
        }
      ],
      "name": "BatchMetadataUpdate",
      "type": "event"
    },
    {
      "anonymous": false,
      "inputs": [
        {
          "indexed": false,
          "internalType": "uint256",
          "name": "_tokenId",
          "type": "uint256"
        }
      ],
      "name": "MetadataUpdate",
      "type": "event"
    },
    {
      "anonymous": false,
      "inputs": [
        {
          "indexed": true,
          "internalType": "address",
          "name": "previousOwner",
          "type": "address"
        },
        {
          "indexed": true,
          "internalType": "address",
          "name": "newOwner",
          "type": "address"
        }
      ],
      "name": "OwnershipTransferred",
      "type": "event"
    },
    {
      "anonymous": false,
      "inputs": [
        {
          "indexed": true,
          "internalType": "address",
          "name": "from",
          "type": "address"
        },
        {
          "indexed": true,
          "internalType": "address",
          "name": "to",
          "type": "address"
        },
        {
          "indexed": true,
          "internalType": "uint256",
          "name": "tokenId",
          "type": "uint256"
        }
      ],
      "name": "Transfer",
      "type": "event"
    },
    {
      "inputs": [
        {
          "internalType": "address",
          "name": "to",
          "type": "address"
        },
        {
          "internalType": "uint256",
          "name": "tokenId",
          "type": "uint256"
        }
      ],
      "name": "approve",
      "outputs": [],
      "stateMutability": "nonpayable",
      "type": "function"
    },
    {
      "inputs": [
        {
          "internalType": "address",
          "name": "owner",
          "type": "address"
        }
      ],
      "name": "balanceOf",
      "outputs": [
        {
          "internalType": "uint256",
          "name": "",
          "type": "uint256"
        }
      ],
      "stateMutability": "view",
      "type": "function"
    },
    {
      "inputs": [
        {
          "internalType": "uint256",
          "name": "tokenId",
          "type": "uint256"
        }
      ],
      "name": "getApproved",
      "outputs": [
        {
          "internalType": "address",
          "name": "",
          "type": "address"
        }
      ],
      "stateMutability": "view",
      "type": "function"
    },
    {
      "inputs": [
        {
          "internalType": "address",
          "name": "owner",
          "type": "address"
        },
        {
          "internalType": "address",
          "name": "operator",
          "type": "address"
        }
      ],
      "name": "isApprovedForAll",
      "outputs": [
        {
          "internalType": "bool",
          "name": "",
          "type": "bool"
        }
      ],
      "stateMutability": "view",
      "type": "function"
    },
    {
      "inputs": [
        {
          "internalType": "address",
          "name": "recipient",
          "type": "address"
        },
        {
          "internalType": "string",
          "name": "tokenURI",
          "type": "string"
        }
      ],
      "name": "mintNFT",
      "outputs": [
        {
          "internalType": "uint256",
          "name": "",
          "type": "uint256"
        }
      ],
      "stateMutability": "nonpayable",
      "type": "function"
    },
    {
      "inputs": [],
      "name": "name",
      "outputs": [
        {
          "internalType": "string",
          "name": "",
          "type": "string"
        }
      ],
      "stateMutability": "view",
      "type": "function"
    },
    {
      "inputs": [],
      "name": "owner",
      "outputs": [
        {
          "internalType": "address",
          "name": "",
          "type": "address"
        }
      ],
      "stateMutability": "view",
      "type": "function"
    },
    {
      "inputs": [
        {
          "internalType": "uint256",
          "name": "tokenId",
          "type": "uint256"
        }
      ],
      "name": "ownerOf",
      "outputs": [
        {
          "internalType": "address",
          "name": "",
          "type": "address"
        }
      ],
      "stateMutability": "view",
      "type": "function"
    },
    {
      "inputs": [],
      "name": "renounceOwnership",
      "outputs": [],
      "stateMutability": "nonpayable",
      "type": "function"
    },
    {
      "inputs": [
        {
          "internalType": "address",
          "name": "from",
          "type": "address"
        },
        {
          "internalType": "address",
          "name": "to",
          "type": "address"
        },
        {
          "internalType": "uint256",
          "name": "tokenId",
          "type": "uint256"
        }
      ],
      "name": "safeTransferFrom",
      "outputs": [],
      "stateMutability": "nonpayable",
      "type": "function"
    },
    {
      "inputs": [
        {
          "internalType": "address",
          "name": "from",
          "type": "address"
        },
        {
          "internalType": "address",
          "name": "to",
          "type": "address"
        },
        {
          "internalType": "uint256",
          "name": "tokenId",
          "type": "uint256"
        },
        {
          "internalType": "bytes",
          "name": "data",
          "type": "bytes"
        }
      ],
      "name": "safeTransferFrom",
      "outputs": [],
      "stateMutability": "nonpayable",
      "type": "function"
    },
    {
      "inputs": [
        {
          "internalType": "address",
          "name": "operator",
          "type": "address"
        },
        {
          "internalType": "bool",
          "name": "approved",
          "type": "bool"
        }
      ],
      "name": "setApprovalForAll",
      "outputs": [],
      "stateMutability": "nonpayable",
      "type": "function"
    },
    {
      "inputs": [
        {
          "internalType": "bytes4",
          "name": "interfaceId",
          "type": "bytes4"
        }
      ],
      "name": "supportsInterface",
      "outputs": [
        {
          "internalType": "bool",
          "name": "",
          "type": "bool"
        }
      ],
      "stateMutability": "view",
      "type": "function"
    },
    {
      "inputs": [],
      "name": "symbol",
      "outputs": [
        {
          "internalType": "string",
          "name": "",
          "type": "string"
        }
      ],
      "stateMutability": "view",
      "type": "function"
    },
    {
      "inputs": [],
      "name": "tokenCounter",
      "outputs": [
        {
          "internalType": "uint256",
          "name": "",
          "type": "uint256"
        }
      ],
      "stateMutability": "view",
      "type": "function"
    },
    {
      "inputs": [
        {
          "internalType": "uint256",
          "name": "tokenId",
          "type": "uint256"
        }
      ],
      "name": "tokenURI",
      "outputs": [
        {
          "internalType": "string",
          "name": "",
          "type": "string"
        }
      ],
      "stateMutability": "view",
      "type": "function"
    },
    {
      "inputs": [
        {
          "internalType": "address",
          "name": "from",
          "type": "address"
        },
        {
          "internalType": "address",
          "name": "to",
          "type": "address"
        },
        {
          "internalType": "uint256",
          "name": "tokenId",
          "type": "uint256"
        }
      ],
      "name": "transferFrom",
      "outputs": [],
      "stateMutability": "nonpayable",
      "type": "function"
    },
    {
      "inputs": [
        {
          "internalType": "address",
          "name": "newOwner",
          "type": "address"
        }
      ],
      "name": "transferOwnership",
      "outputs": [],
      "stateMutability": "nonpayable",
      "type": "function"
    }
  ],
  "bytecode": "0x608060405234801561001057600080fd5b50604051612d69380380612d6983398181016040528101906100329190610323565b338282816000908161004491906105bc565b50806001908161005491906105bc565b505050600073ffffffffffffffffffffffffffffffffffffffff168173ffffffffffffffffffffffffffffffffffffffff16036100c95760006040517f1e4fbdf70000000000000000000000000000000000000000000000000000000081526004016100c091906106cf565b60405180910390fd5b6100d8816100e860201b60201c565b50600060088190555050506106ea565b6000600760009054906101000a900473ffffffffffffffffffffffffffffffffffffffff16905081600760006101000a81548173ffffffffffffffffffffffffffffffffffffffff021916908373ffffffffffffffffffffffffffffffffffffffff1602179055508173ffffffffffffffffffffffffffffffffffffffff168173ffffffffffffffffffffffffffffffffffffffff167f8be0079c531659141344cd1fd0a4f28419497f9722a3daafe3b4186f6b6457e060405160405180910390a35050565b6000604051905090565b600080fd5b600080fd5b600080fd5b600080fd5b6000601f19601f8301169050919050565b7f4e487b7100000000000000000000000000000000000000000000000000000000600052604160045260246000fd5b610215826101cc565b810181811067ffffffffffffffff82111715610234576102336101dd565b5b80604052505050565b60006102476101ae565b9050610253828261020c565b919050565b600067ffffffffffffffff821115610273576102726101dd565b5b61027c826101cc565b9050602081019050919050565b60005b838110156102a757808201518184015260208101905061028c565b60008484015250505050565b60006102c66102c184610258565b61023d565b9050828152602081018484840111156102e2576102e16101c7565b5b6102ed848285610289565b509392505050565b600082601f83011261030a576103096101c2565b5b815161031a8482602086016102b3565b91505092915050565b6000806040838503121561033a576103396101b8565b5b600083015167ffffffffffffffff811115610358576103576101bd565b5b610364858286016102f5565b925050602083015167ffffffffffffffff811115610385576103846101bd565b5b610391858286016102f5565b9150509250929050565b600081519050919050565b7f4e487b7100000000000000000000000000000000000000000000000000000000600052602260045260246000fd5b600060028204905060018216806103ed57607f821691505b602082108103610400576103ff6103a6565b5b50919050565b60008190508160005260206000209050919050565b60006020601f8301049050919050565b600082821b905092915050565b6000600883026104687fffffffffffffffffffffffffffffffffffffffffffffffffffffffffffffffff8261042b565b610472868361042b565b95508019841693508086168417925050509392505050565b6000819050919050565b6000819050919050565b60006104b96104b46104af8461048a565b610494565b61048a565b9050919050565b6000819050919050565b6104d38361049e565b6104e76104df826104c0565b848454610438565b825550505050565b600090565b6104fc6104ef565b6105078184846104ca565b505050565b5b8181101561052b576105206000826104f4565b60018101905061050d565b5050565b601f8211156105705761054181610406565b61054a8461041b565b81016020851015610559578190505b61056d6105658561041b565b83018261050c565b50505b505050565b600082821c905092915050565b600061059360001984600802610575565b1980831691505092915050565b60006105ac8383610582565b9150826002028217905092915050565b6105c58261039b565b67ffffffffffffffff8111156105de576105dd6101dd565b5b6105e882546103d5565b6105f382828561052f565b600060209050601f8311600181146106265760008415610614578287015190505b61061e85826105a0565b865550610686565b601f19841661063486610406565b60005b8281101561065c57848901518255600182019150602085019450602081019050610637565b868310156106795784890151610675601f891682610582565b8355505b6001600288020188555050505b505050505050565b600073ffffffffffffffffffffffffffffffffffffffff82169050919050565b60006106b98261068e565b9050919050565b6106c9816106ae565b82525050565b60006020820190506106e460008301846106c0565b92915050565b612670806106f96000396000f3fe608060405234801561001057600080fd5b50600436106101165760003560e01c80638da5cb5b116100a2578063c87b56dd11610071578063c87b56dd146102cb578063d082e381146102fb578063e985e9c514610319578063eacabe1414610349578063f2fde38b1461037957610116565b80638da5cb5b1461025757806395d89b4114610275578063a22cb46514610293578063b88d4fde146102af57610116565b806323b872dd116100e957806323b872dd146101b557806342842e0e146101d15780636352211e146101ed57806370a082311461021d578063715018a61461024d57610116565b806301ffc9a71461011b57806306fdde031461014b578063081812fc14610169578063095ea7b314610199575b600080fd5b61013560048036038101906101309190611ac8565b610395565b6040516101429190611b10565b60405180910390f35b6101536103f6565b6040516101609190611bbb565b60405180910390f35b610183600480360381019061017e9190611c13565b610488565b6040516101909190611c81565b60405180910390f35b6101b360048036038101906101ae9190611cc8565b6104a4565b005b6101cf60048036038101906101ca9190611d08565b6104ba565b005b6101eb60048036038101906101e69190611d08565b6105bc565b005b61020760048036038101906102029190611c13565b6105dc565b6040516102149190611c81565b60405180910390f35b61023760048036038101906102329190611d5b565b6105ee565b6040516102449190611d97565b60405180910390f35b6102556106a8565b005b61025f6106bc565b60405161026c9190611c81565b60405180910390f35b61027d6106e6565b60405161028a9190611bbb565b60405180910390f35b6102ad60048036038101906102a89190611dde565b610778565b005b6102c960048036038101906102c49190611f53565b61078e565b005b6102e560048036038101906102e09190611c13565b6107b3565b6040516102f29190611bbb565b60405180910390f35b6103036108c6565b6040516103109190611d97565b60405180910390f35b610333600480360381019061032e9190611fd6565b6108cc565b6040516103409190611b10565b60405180910390f35b610363600480360381019061035e91906120b7565b610960565b6040516103709190611d97565b60405180910390f35b610393600480360381019061038e9190611d5b565b6109a7565b005b6000634906490660e01b7bffffffffffffffffffffffffffffffffffffffffffffffffffffffff1916827bffffffffffffffffffffffffffffffffffffffffffffffffffffffff191614806103ef57506103ee82610a2d565b5b9050919050565b60606000805461040590612142565b80601f016020809104026020016040519081016040528092919081815260200182805461043190612142565b801561047e5780601f106104535761010080835404028352916020019161047e565b820191906000526020600020905b81548152906001019060200180831161046157829003601f168201915b5050505050905090565b600061049382610b0f565b5061049d82610b97565b9050919050565b6104b682826104b1610bd4565b610bdc565b5050565b600073ffffffffffffffffffffffffffffffffffffffff168273ffffffffffffffffffffffffffffffffffffffff160361052c5760006040517f64a0ae920000000000000000000000000000000000000000000000000000000081526004016105239190611c81565b60405180910390fd5b6000610540838361053b610bd4565b610bee565b90508373ffffffffffffffffffffffffffffffffffffffff168173ffffffffffffffffffffffffffffffffffffffff16146105b6578382826040517f64283d7b0000000000000000000000000000000000000000000000000000000081526004016105ad93929190612173565b60405180910390fd5b50505050565b6105d78383836040518060200160405280600081525061078e565b505050565b60006105e782610b0f565b9050919050565b60008073ffffffffffffffffffffffffffffffffffffffff168273ffffffffffffffffffffffffffffffffffffffff16036106615760006040517f89c62b640000000000000000000000000000000000000000000000000000000081526004016106589190611c81565b60405180910390fd5b600360008373ffffffffffffffffffffffffffffffffffffffff1673ffffffffffffffffffffffffffffffffffffffff168152602001908152602001600020549050919050565b6106b0610e08565b6106ba6000610e8f565b565b6000600760009054906101000a900473ffffffffffffffffffffffffffffffffffffffff16905090565b6060600180546106f590612142565b80601f016020809104026020016040519081016040528092919081815260200182805461072190612142565b801561076e5780601f106107435761010080835404028352916020019161076e565b820191906000526020600020905b81548152906001019060200180831161075157829003601f168201915b5050505050905090565b61078a610783610bd4565b8383610f55565b5050565b6107998484846104ba565b6107ad6107a4610bd4565b858585856110c4565b50505050565b60606107be82610b0f565b5060006006600084815260200190815260200160002080546107df90612142565b80601f016020809104026020016040519081016040528092919081815260200182805461080b90612142565b80156108585780601f1061082d57610100808354040283529160200191610858565b820191906000526020600020905b81548152906001019060200180831161083b57829003601f168201915b505050505090506000610869611275565b9050600081510361087e5781925050506108c1565b6000825111156108b357808260405160200161089b9291906121e6565b604051602081830303815290604052925050506108c1565b6108bc8461128c565b925050505b919050565b60085481565b6000600560008473ffffffffffffffffffffffffffffffffffffffff1673ffffffffffffffffffffffffffffffffffffffff16815260200190815260200160002060008373ffffffffffffffffffffffffffffffffffffffff1673ffffffffffffffffffffffffffffffffffffffff16815260200190815260200160002060009054906101000a900460ff16905092915050565b600061096a610e08565b6000600854905061097b84826112f5565b61098581846113ee565b6008600081548092919061099890612239565b91905055508091505092915050565b6109af610e08565b600073ffffffffffffffffffffffffffffffffffffffff168173ffffffffffffffffffffffffffffffffffffffff1603610a215760006040517f1e4fbdf7000000000000000000000000000000000000000000000000000000008152600401610a189190611c81565b60405180910390fd5b610a2a81610e8f565b50565b60007f80ac58cd000000000000000000000000000000000000000000000000000000007bffffffffffffffffffffffffffffffffffffffffffffffffffffffff1916827bffffffffffffffffffffffffffffffffffffffffffffffffffffffff19161480610af857507f5b5e139f000000000000000000000000000000000000000000000000000000007bffffffffffffffffffffffffffffffffffffffffffffffffffffffff1916827bffffffffffffffffffffffffffffffffffffffffffffffffffffffff1916145b80610b085750610b078261144a565b5b9050919050565b600080610b1b836114b4565b9050600073ffffffffffffffffffffffffffffffffffffffff168173ffffffffffffffffffffffffffffffffffffffff1603610b8e57826040517f7e273289000000000000000000000000000000000000000000000000000000008152600401610b859190611d97565b60405180910390fd5b80915050919050565b60006004600083815260200190815260200160002060009054906101000a900473ffffffffffffffffffffffffffffffffffffffff169050919050565b600033905090565b610be983838360016114f1565b505050565b600080610bfa846114b4565b9050600073ffffffffffffffffffffffffffffffffffffffff168373ffffffffffffffffffffffffffffffffffffffff1614610c3c57610c3b8184866116b6565b5b600073ffffffffffffffffffffffffffffffffffffffff168173ffffffffffffffffffffffffffffffffffffffff1614610ccd57610c7e6000856000806114f1565b6001600360008373ffffffffffffffffffffffffffffffffffffffff1673ffffffffffffffffffffffffffffffffffffffff168152602001908152602001600020600082825403925050819055505b600073ffffffffffffffffffffffffffffffffffffffff168573ffffffffffffffffffffffffffffffffffffffff1614610d50576001600360008773ffffffffffffffffffffffffffffffffffffffff1673ffffffffffffffffffffffffffffffffffffffff168152602001908152602001600020600082825401925050819055505b846002600086815260200190815260200160002060006101000a81548173ffffffffffffffffffffffffffffffffffffffff021916908373ffffffffffffffffffffffffffffffffffffffff160217905550838573ffffffffffffffffffffffffffffffffffffffff168273ffffffffffffffffffffffffffffffffffffffff167fddf252ad1be2c89b69c2b068fc378daa952ba7f163c4a11628f55a4df523b3ef60405160405180910390a4809150509392505050565b610e10610bd4565b73ffffffffffffffffffffffffffffffffffffffff16610e2e6106bc565b73ffffffffffffffffffffffffffffffffffffffff1614610e8d57610e51610bd4565b6040517f118cdaa7000000000000000000000000000000000000000000000000000000008152600401610e849190611c81565b60405180910390fd5b565b6000600760009054906101000a900473ffffffffffffffffffffffffffffffffffffffff16905081600760006101000a81548173ffffffffffffffffffffffffffffffffffffffff021916908373ffffffffffffffffffffffffffffffffffffffff1602179055508173ffffffffffffffffffffffffffffffffffffffff168173ffffffffffffffffffffffffffffffffffffffff167f8be0079c531659141344cd1fd0a4f28419497f9722a3daafe3b4186f6b6457e060405160405180910390a35050565b600073ffffffffffffffffffffffffffffffffffffffff168273ffffffffffffffffffffffffffffffffffffffff1603610fc657816040517f5b08ba18000000000000000000000000000000000000000000000000000000008152600401610fbd9190611c81565b60405180910390fd5b80600560008573ffffffffffffffffffffffffffffffffffffffff1673ffffffffffffffffffffffffffffffffffffffff16815260200190815260200160002060008473ffffffffffffffffffffffffffffffffffffffff1673ffffffffffffffffffffffffffffffffffffffff16815260200190815260200160002060006101000a81548160ff0219169083151502179055508173ffffffffffffffffffffffffffffffffffffffff168373ffffffffffffffffffffffffffffffffffffffff167f17307eab39ab6107e8899845ad3d59bd9653f200f220920489ca2b5937696c31836040516110b79190611b10565b60405180910390a3505050565b60008373ffffffffffffffffffffffffffffffffffffffff163b111561126e578273ffffffffffffffffffffffffffffffffffffffff1663150b7a02868685856040518563ffffffff1660e01b815260040161112394939291906122d6565b6020604051808303816000875af192505050801561115f57506040513d601f19601f8201168201806040525081019061115c9190612337565b60015b6111e3573d806000811461118f576040519150601f19603f3d011682016040523d82523d6000602084013e611194565b606091505b5060008151036111db57836040517f64a0ae920000000000000000000000000000000000000000000000000000000081526004016111d29190611c81565b60405180910390fd5b805181602001fd5b63150b7a0260e01b7bffffffffffffffffffffffffffffffffffffffffffffffffffffffff1916817bffffffffffffffffffffffffffffffffffffffffffffffffffffffff19161461126c57836040517f64a0ae920000000000000000000000000000000000000000000000000000000081526004016112639190611c81565b60405180910390fd5b505b5050505050565b606060405180602001604052806000815250905090565b606061129782610b0f565b5060006112a2611275565b905060008151116112c257604051806020016040528060008152506112ed565b806112cc8461177a565b6040516020016112dd9291906121e6565b6040516020818303038152906040525b915050919050565b600073ffffffffffffffffffffffffffffffffffffffff168273ffffffffffffffffffffffffffffffffffffffff16036113675760006040517f64a0ae9200000000000000000000000000000000000000000000000000000000815260040161135e9190611c81565b60405180910390fd5b600061137583836000610bee565b9050600073ffffffffffffffffffffffffffffffffffffffff168173ffffffffffffffffffffffffffffffffffffffff16146113e95760006040517f73c6ac6e0000000000000000000000000000000000000000000000000000000081526004016113e09190611c81565b60405180910390fd5b505050565b8060066000848152602001908152602001600020908161140e9190612510565b507ff8e1a15aba9398e019f0b49df1a4fde98ee17ae345cb5f6b5e2c27f5033e8ce78260405161143e9190611d97565b60405180910390a15050565b60007f01ffc9a7000000000000000000000000000000000000000000000000000000007bffffffffffffffffffffffffffffffffffffffffffffffffffffffff1916827bffffffffffffffffffffffffffffffffffffffffffffffffffffffff1916149050919050565b60006002600083815260200190815260200160002060009054906101000a900473ffffffffffffffffffffffffffffffffffffffff169050919050565b808061152a5750600073ffffffffffffffffffffffffffffffffffffffff168273ffffffffffffffffffffffffffffffffffffffff1614155b1561165e57600061153a84610b0f565b9050600073ffffffffffffffffffffffffffffffffffffffff168373ffffffffffffffffffffffffffffffffffffffff16141580156115a557508273ffffffffffffffffffffffffffffffffffffffff168173ffffffffffffffffffffffffffffffffffffffff1614155b80156115b857506115b681846108cc565b155b156115fa57826040517fa9fbf51f0000000000000000000000000000000000000000000000000000000081526004016115f19190611c81565b60405180910390fd5b811561165c57838573ffffffffffffffffffffffffffffffffffffffff168273ffffffffffffffffffffffffffffffffffffffff167f8c5be1e5ebec7d5bd14f71427d1e84f3dd0314c0f7b2291e5b200ac8c7c3b92560405160405180910390a45b505b836004600085815260200190815260200160002060006101000a81548173ffffffffffffffffffffffffffffffffffffffff021916908373ffffffffffffffffffffffffffffffffffffffff16021790555050505050565b6116c1838383611848565b61177557600073ffffffffffffffffffffffffffffffffffffffff168373ffffffffffffffffffffffffffffffffffffffff160361173657806040517f7e27328900000000000000000000000000000000000000000000000000000000815260040161172d9190611d97565b60405180910390fd5b81816040517f177e802f00000000000000000000000000000000000000000000000000000000815260040161176c9291906125e2565b60405180910390fd5b505050565b60606000600161178984611909565b01905060008167ffffffffffffffff8111156117a8576117a7611e28565b5b6040519080825280601f01601f1916602001820160405280156117da5781602001600182028036833780820191505090505b509050600082602001820190505b60011561183d578080600190039150507f3031323334353637383961626364656600000000000000000000000000000000600a86061a8153600a85816118315761183061260b565b5b049450600085036117e8575b819350505050919050565b60008073ffffffffffffffffffffffffffffffffffffffff168373ffffffffffffffffffffffffffffffffffffffff161415801561190057508273ffffffffffffffffffffffffffffffffffffffff168473ffffffffffffffffffffffffffffffffffffffff1614806118c157506118c084846108cc565b5b806118ff57508273ffffffffffffffffffffffffffffffffffffffff166118e783610b97565b73ffffffffffffffffffffffffffffffffffffffff16145b5b90509392505050565b600080600090507a184f03e93ff9f4daa797ed6e38ed64bf6a1f0100000000000000008310611967577a184f03e93ff9f4daa797ed6e38ed64bf6a1f010000000000000000838161195d5761195c61260b565b5b0492506040810190505b6d04ee2d6d415b85acef810000000083106119a4576d04ee2d6d415b85acef8100000000838161199a5761199961260b565b5b0492506020810190505b662386f26fc1000083106119d357662386f26fc1000083816119c9576119c861260b565b5b0492506010810190505b6305f5e10083106119fc576305f5e10083816119f2576119f161260b565b5b0492506008810190505b6127108310611a21576127108381611a1757611a1661260b565b5b0492506004810190505b60648310611a445760648381611a3a57611a3961260b565b5b0492506002810190505b600a8310611a53576001810190505b80915050919050565b6000604051905090565b600080fd5b600080fd5b60007fffffffff0000000000000000000000000000000000000000000000000000000082169050919050565b611aa581611a70565b8114611ab057600080fd5b50565b600081359050611ac281611a9c565b92915050565b600060208284031215611ade57611add611a66565b5b6000611aec84828501611ab3565b91505092915050565b60008115159050919050565b611b0a81611af5565b82525050565b6000602082019050611b256000830184611b01565b92915050565b600081519050919050565b600082825260208201905092915050565b60005b83811015611b65578082015181840152602081019050611b4a565b60008484015250505050565b6000601f19601f8301169050919050565b6000611b8d82611b2b565b611b978185611b36565b9350611ba7818560208601611b47565b611bb081611b71565b840191505092915050565b60006020820190508181036000830152611bd58184611b82565b905092915050565b6000819050919050565b611bf081611bdd565b8114611bfb57600080fd5b50565b600081359050611c0d81611be7565b92915050565b600060208284031215611c2957611c28611a66565b5b6000611c3784828501611bfe565b91505092915050565b600073ffffffffffffffffffffffffffffffffffffffff82169050919050565b6000611c6b82611c40565b9050919050565b611c7b81611c60565b82525050565b6000602082019050611c966000830184611c72565b92915050565b611ca581611c60565b8114611cb057600080fd5b50565b600081359050611cc281611c9c565b92915050565b60008060408385031215611cdf57611cde611a66565b5b6000611ced85828601611cb3565b9250506020611cfe85828601611bfe565b9150509250929050565b600080600060608486031215611d2157611d20611a66565b5b6000611d2f86828701611cb3565b9350506020611d4086828701611cb3565b9250506040611d5186828701611bfe565b9150509250925092565b600060208284031215611d7157611d70611a66565b5b6000611d7f84828501611cb3565b91505092915050565b611d9181611bdd565b82525050565b6000602082019050611dac6000830184611d88565b92915050565b611dbb81611af5565b8114611dc657600080fd5b50565b600081359050611dd881611db2565b92915050565b60008060408385031215611df557611df4611a66565b5b6000611e0385828601611cb3565b9250506020611e1485828601611dc9565b9150509250929050565b600080fd5b600080fd5b7f4e487b7100000000000000000000000000000000000000000000000000000000600052604160045260246000fd5b611e6082611b71565b810181811067ffffffffffffffff82111715611e7f57611e7e611e28565b5b80604052505050565b6000611e92611a5c565b9050611e9e8282611e57565b919050565b600067ffffffffffffffff821115611ebe57611ebd611e28565b5b611ec782611b71565b9050602081019050919050565b82818337600083830152505050565b6000611ef6611ef184611ea3565b611e88565b905082815260208101848484011115611f1257611f11611e23565b5b611f1d848285611ed4565b509392505050565b600082601f830112611f3a57611f39611e1e565b5b8135611f4a848260208601611ee3565b91505092915050565b60008060008060808587031215611f6d57611f6c611a66565b5b6000611f7b87828801611cb3565b9450506020611f8c87828801611cb3565b9350506040611f9d87828801611bfe565b925050606085013567ffffffffffffffff811115611fbe57611fbd611a6b565b5b611fca87828801611f25565b91505092959194509250565b60008060408385031215611fed57611fec611a66565b5b6000611ffb85828601611cb3565b925050602061200c85828601611cb3565b9150509250929050565b600067ffffffffffffffff82111561203157612030611e28565b5b61203a82611b71565b9050602081019050919050565b600061205a61205584612016565b611e88565b90508281526020810184848401111561207657612075611e23565b5b612081848285611ed4565b509392505050565b600082601f83011261209e5761209d611e1e565b5b81356120ae848260208601612047565b91505092915050565b600080604083850312156120ce576120cd611a66565b5b60006120dc85828601611cb3565b925050602083013567ffffffffffffffff8111156120fd576120fc611a6b565b5b61210985828601612089565b9150509250929050565b7f4e487b7100000000000000000000000000000000000000000000000000000000600052602260045260246000fd5b6000600282049050600182168061215a57607f821691505b60208210810361216d5761216c612113565b5b50919050565b60006060820190506121886000830186611c72565b6121956020830185611d88565b6121a26040830184611c72565b949350505050565b600081905092915050565b60006121c082611b2b565b6121ca81856121aa565b93506121da818560208601611b47565b80840191505092915050565b60006121f282856121b5565b91506121fe82846121b5565b91508190509392505050565b7f4e487b7100000000000000000000000000000000000000000000000000000000600052601160045260246000fd5b600061224482611bdd565b91507fffffffffffffffffffffffffffffffffffffffffffffffffffffffffffffffff82036122765761227561220a565b5b600182019050919050565b600081519050919050565b600082825260208201905092915050565b60006122a882612281565b6122b2818561228c565b93506122c2818560208601611b47565b6122cb81611b71565b840191505092915050565b60006080820190506122eb6000830187611c72565b6122f86020830186611c72565b6123056040830185611d88565b8181036060830152612317818461229d565b905095945050505050565b60008151905061233181611a9c565b92915050565b60006020828403121561234d5761234c611a66565b5b600061235b84828501612322565b91505092915050565b60008190508160005260206000209050919050565b60006020601f8301049050919050565b600082821b905092915050565b6000600883026123c67fffffffffffffffffffffffffffffffffffffffffffffffffffffffffffffffff82612389565b6123d08683612389565b95508019841693508086168417925050509392505050565b6000819050919050565b600061240d61240861240384611bdd565b6123e8565b611bdd565b9050919050565b6000819050919050565b612427836123f2565b61243b61243382612414565b848454612396565b825550505050565b600090565b612450612443565b61245b81848461241e565b505050565b5b8181101561247f57612474600082612448565b600181019050612461565b5050565b601f8211156124c45761249581612364565b61249e84612379565b810160208510156124ad578190505b6124c16124b985612379565b830182612460565b50505b505050565b600082821c905092915050565b60006124e7600019846008026124c9565b1980831691505092915050565b600061250083836124d6565b9150826002028217905092915050565b61251982611b2b565b67ffffffffffffffff81111561253257612531611e28565b5b61253c8254612142565b612547828285612483565b600060209050601f83116001811461257a5760008415612568578287015190505b61257285826124f4565b8655506125da565b601f19841661258886612364565b60005b828110156125b05784890151825560018201915060208501945060208101905061258b565b868310156125cd57848901516125c9601f8916826124d6565b8355505b6001600288020188555050505b505050505050565b60006040820190506125f76000830185611c72565b6126046020830184611d88565b9392505050565b7f4e487b7100000000000000000000000000000000000000000000000000000000600052601260045260246000fdfea2646970667358221220d7aa146335e14fc97119467cb58ad5fd40fd653b0c32923a2806895565ffe30b64736f6c634300081c0033",
  "linkReferences": {},
  "deployedLinkReferences": {}
}